{
  "contractName": "VotingSystem",
  "abi": [
    {
      "anonymous": false,
      "inputs": [
        {
          "indexed": false,
          "internalType": "uint256",
          "name": "electionId",
          "type": "uint256"
        },
        {
          "indexed": false,
          "internalType": "uint256",
          "name": "candidateId",
          "type": "uint256"
        },
        {
          "indexed": false,
          "internalType": "string",
          "name": "name",
          "type": "string"
        }
      ],
      "name": "CandidateAdded",
      "type": "event"
    },
    {
      "anonymous": false,
      "inputs": [
        {
          "indexed": false,
          "internalType": "uint256",
          "name": "electionId",
          "type": "uint256"
        }
      ],
      "name": "ElectionClosed",
      "type": "event"
    },
    {
      "anonymous": false,
      "inputs": [
        {
          "indexed": false,
          "internalType": "uint256",
          "name": "electionId",
          "type": "uint256"
        },
        {
          "indexed": false,
          "internalType": "string",
          "name": "name",
          "type": "string"
        }
      ],
      "name": "ElectionCreated",
      "type": "event"
    },
    {
      "anonymous": false,
      "inputs": [
        {
          "indexed": false,
          "internalType": "uint256",
          "name": "electionId",
          "type": "uint256"
        },
        {
          "indexed": false,
          "internalType": "uint256",
          "name": "candidateId",
          "type": "uint256"
        },
        {
          "indexed": false,
          "internalType": "address",
          "name": "voter",
          "type": "address"
        }
      ],
      "name": "VoteCasted",
      "type": "event"
    },
    {
      "inputs": [],
      "name": "electionCount",
      "outputs": [
        {
          "internalType": "uint256",
          "name": "",
          "type": "uint256"
        }
      ],
      "stateMutability": "view",
      "type": "function"
    },
    {
      "inputs": [
        {
          "internalType": "uint256",
          "name": "",
          "type": "uint256"
        }
      ],
      "name": "elections",
      "outputs": [
        {
          "internalType": "uint256",
          "name": "id",
          "type": "uint256"
        },
        {
          "internalType": "string",
          "name": "name",
          "type": "string"
        },
        {
          "internalType": "bool",
          "name": "isActive",
          "type": "bool"
        },
        {
          "internalType": "uint256",
          "name": "candidateCount",
          "type": "uint256"
        }
      ],
      "stateMutability": "view",
      "type": "function"
    },
    {
      "inputs": [
        {
          "internalType": "string",
          "name": "_name",
          "type": "string"
        }
      ],
      "name": "createElection",
      "outputs": [],
      "stateMutability": "nonpayable",
      "type": "function"
    },
    {
      "inputs": [
        {
          "internalType": "uint256",
          "name": "_electionId",
          "type": "uint256"
        },
        {
          "internalType": "string",
          "name": "_name",
          "type": "string"
        }
      ],
      "name": "addCandidate",
      "outputs": [],
      "stateMutability": "nonpayable",
      "type": "function"
    },
    {
      "inputs": [
        {
          "internalType": "uint256",
          "name": "_electionId",
          "type": "uint256"
        },
        {
          "internalType": "uint256",
          "name": "_candidateId",
          "type": "uint256"
        }
      ],
      "name": "vote",
      "outputs": [],
      "stateMutability": "nonpayable",
      "type": "function"
    },
    {
      "inputs": [
        {
          "internalType": "uint256",
          "name": "_electionId",
          "type": "uint256"
        },
        {
          "internalType": "uint256",
          "name": "_candidateId",
          "type": "uint256"
        }
      ],
      "name": "getCandidate",
      "outputs": [
        {
          "internalType": "uint256",
          "name": "",
          "type": "uint256"
        },
        {
          "internalType": "string",
          "name": "",
          "type": "string"
        },
        {
          "internalType": "uint256",
          "name": "",
          "type": "uint256"
        }
      ],
      "stateMutability": "view",
      "type": "function"
    },
    {
      "inputs": [
        {
          "internalType": "uint256",
          "name": "_electionId",
          "type": "uint256"
        }
      ],
      "name": "closeElection",
      "outputs": [],
      "stateMutability": "nonpayable",
      "type": "function"
    }
  ],
  "bytecode": "0x608060405234801561001057600080fd5b506109be806100206000396000f3fe608060405234801561001057600080fd5b506004361061007d5760003560e01c80634bd464481161005b5780634bd46448146100bd5780635e6fef01146100e8578063997d28301461010b578063b384abef146101205761007d565b806309e33d071461008257806315cf4a5f146100975780631750a3d0146100aa575b600080fd5b6100956100903660046106fe565b610133565b005b6100956100a53660046106c3565b610187565b6100956100b8366004610716565b610215565b6100d06100cb36600461075b565b610312565b6040516100df939291906108a0565b60405180910390f35b6100fb6100f63660046106fe565b6103db565b6040516100df9493929190610874565b61011361048f565b6040516100df9190610852565b61009561012e36600461075b565b610495565b60008181526001602052604090819020600201805460ff19169055517f393c4b8e62f1195313cf17dcf00793c668ddfc35881cd8015559c074f6d61e839061017c908390610852565b60405180910390a150565b6000805490806101968361094b565b909155505060008054808252600160208181526040909320918255835191926101c69291840191908501906105a9565b5060028101805460ff191660011790556000546040517f52be7c4e77b4de76b7607d621492061fe13b58597e72dfb5e51ab8f6187ed1419161020991859061085b565b60405180910390a15050565b600082815260016020526040902060020154829060ff166102515760405162461bcd60e51b8152600401610248906107f2565b60405180910390fd5b600083815260016020526040812060038101805491926102708361094b565b9091555050604080516060810182526003830154808252602080830187815260008486018190529283526004860182529390912082518155925180519293926102bf92600185019201906105a9565b50604082015181600201559050507fed8911b3df733b7d5f75724158e54478ea12e30f49c9d31b5261879f5b76586f84826003015485604051610304939291906108e8565b60405180910390a150505050565b600082815260016020818152604080842085855260040190915282208054600282015492820180546060948694939291829061034d90610910565b80601f016020809104026020016040519081016040528092919081815260200182805461037990610910565b80156103c65780601f1061039b576101008083540402835291602001916103c6565b820191906000526020600020905b8154815290600101906020018083116103a957829003601f168201915b50505050509150935093509350509250925092565b6001602081905260009182526040909120805491810180546103fc90610910565b80601f016020809104026020016040519081016040528092919081815260200182805461042890610910565b80156104755780601f1061044a57610100808354040283529160200191610475565b820191906000526020600020905b81548152906001019060200180831161045857829003601f168201915b505050506002830154600390930154919260ff1691905084565b60005481565b600082815260016020526040902060020154829060ff166104c85760405162461bcd60e51b8152600401610248906107f2565b6000838152600160209081526040808320338452600581019092529091205460ff16156105075760405162461bcd60e51b815260040161024890610822565b60008311801561051b575080600301548311155b6105375760405162461bcd60e51b8152600401610248906107c7565b3360009081526005820160209081526040808320805460ff191660011790558583526004840190915281206002018054916105718361094b565b91905055507ffe9b9fe32c3fe66775687ffbbb055de4489a6f99a6d31665430849156e8d7435848433604051610304939291906108c9565b8280546105b590610910565b90600052602060002090601f0160209004810192826105d7576000855561061d565b82601f106105f057805160ff191683800117855561061d565b8280016001018555821561061d579182015b8281111561061d578251825591602001919060010190610602565b5061062992915061062d565b5090565b5b80821115610629576000815560010161062e565b600082601f830112610652578081fd5b813567ffffffffffffffff8082111561066d5761066d610972565b604051601f8301601f19168101602001828111828210171561069157610691610972565b6040528281528483016020018610156106a8578384fd5b82602086016020830137918201602001929092529392505050565b6000602082840312156106d4578081fd5b813567ffffffffffffffff8111156106ea578182fd5b6106f684828501610642565b949350505050565b60006020828403121561070f578081fd5b5035919050565b60008060408385031215610728578081fd5b82359150602083013567ffffffffffffffff811115610745578182fd5b61075185828601610642565b9150509250929050565b6000806040838503121561076d578182fd5b50508035926020909101359150565b60008151808452815b818110156107a157602081850181015186830182015201610785565b818111156107b25782602083870101525b50601f01601f19169290920160200192915050565b602080825260119082015270496e76616c69642063616e64696461746560781b604082015260600190565b602080825260169082015275456c656374696f6e206973206e6f742061637469766560501b604082015260600190565b602080825260169082015275165bdd481a185d9948185b1c9958591e481d9bdd195960521b604082015260600190565b90815260200190565b6000838252604060208301526106f6604083018461077c565b60008582526080602083015261088d608083018661077c565b9315156040830152506060015292915050565b6000848252606060208301526108b9606083018561077c565b9050826040830152949350505050565b92835260208301919091526001600160a01b0316604082015260600190565b600084825283602083015260606040830152610907606083018461077c565b95945050505050565b60028104600182168061092457607f821691505b6020821081141561094557634e487b7160e01b600052602260045260246000fd5b50919050565b600060001982141561096b57634e487b7160e01b81526011600452602481fd5b5060010190565b634e487b7160e01b600052604160045260246000fdfea2646970667358221220c103d26e9074f6982acf8c093a12afd7b48097b373afbdd101f1c2ef014e47d964736f6c63430008000033",
  "immutableReferences": {},
  "source": "// SPDX-License-Identifier: MIT\npragma solidity ^0.8.0;\n\ncontract VotingSystem {\n    struct Candidate {\n        uint id;\n        string name;\n        uint voteCount;\n    }\n\n    struct Election {\n        uint id;\n        string name;\n        bool isActive;\n        uint candidateCount;\n        mapping(uint => Candidate) candidates;\n        mapping(address => bool) hasVoted;\n    }\n\n    uint public electionCount;\n    mapping(uint => Election) public elections;\n\n    // Events to track actions\n    event ElectionCreated(uint electionId, string name);\n    event CandidateAdded(uint electionId, uint candidateId, string name);\n    event VoteCasted(uint electionId, uint candidateId, address voter);\n    event ElectionClosed(uint electionId);\n\n    modifier onlyActiveElection(uint _electionId) {\n        require(elections[_electionId].isActive, \"Election is not active\");\n        _;\n    }\n\n    function createElection(string memory _name) public {\n        electionCount++;\n        Election storage newElection = elections[electionCount];\n        newElection.id = electionCount;\n        newElection.name = _name;\n        newElection.isActive = true;\n\n        emit ElectionCreated(electionCount, _name);\n    }\n\n    function addCandidate(uint _electionId, string memory _name) public onlyActiveElection(_electionId) {\n        Election storage election = elections[_electionId];\n        election.candidateCount++;\n        election.candidates[election.candidateCount] = Candidate(election.candidateCount, _name, 0);\n\n        emit CandidateAdded(_electionId, election.candidateCount, _name);\n    }\n\n    function vote(uint _electionId, uint _candidateId) public onlyActiveElection(_electionId) {\n        Election storage election = elections[_electionId];\n        require(!election.hasVoted[msg.sender], \"You have already voted\");\n        require(_candidateId > 0 && _candidateId <= election.candidateCount, \"Invalid candidate\");\n\n        election.hasVoted[msg.sender] = true;\n        election.candidates[_candidateId].voteCount++;\n\n        emit VoteCasted(_electionId, _candidateId, msg.sender);\n    }\n\n    function getCandidate(uint _electionId, uint _candidateId) public view returns (uint, string memory, uint) {\n        Candidate storage candidate = elections[_electionId].candidates[_candidateId];\n        return (candidate.id, candidate.name, candidate.voteCount);\n    }\n\n    function closeElection(uint _electionId) public {\n        elections[_electionId].isActive = false;\n        emit ElectionClosed(_electionId);\n    }\n}\n",
  "sourcePath": "/Users/Akmal/Desktop/Decentralized-voting-system--main/contracts/VotingSystem.sol",
  "compiler": {
    "name": "solc",
    "version": "0.8.0+commit.c7dfd78e.Emscripten.clang"
  },
  "schemaVersion": "3.4.16",
  "updatedAt": "2025-02-09T12:09:43.248Z",
  "devdoc": {
    "kind": "dev",
    "methods": {},
    "version": 1
  },
  "userdoc": {
    "kind": "user",
    "methods": {},
    "version": 1
  }
}